{"_format":"hh-sol-artifact-1","contractName":"Lves","sourceName":"contracts/Lves.sol","abi":[{"anonymous":false,"inputs":[{"indexed":false,"internalType":"address","name":"userAddress","type":"address"}],"name":"LogEntriesRecieved","type":"event"},{"anonymous":false,"inputs":[{"indexed":false,"internalType":"address","name":"userAddress","type":"address"},{"indexed":false,"internalType":"string","name":"createdAt","type":"string"},{"indexed":false,"internalType":"string","name":"text","type":"string"}],"name":"LogEntryAdded","type":"event"},{"anonymous":false,"inputs":[{"indexed":false,"internalType":"address","name":"userAddress","type":"address"},{"indexed":false,"internalType":"uint256","name":"index","type":"uint256"}],"name":"LogRemoveEntry","type":"event"},{"anonymous":false,"inputs":[{"indexed":false,"internalType":"address","name":"userAddress","type":"address"}],"name":"LogUserAdded","type":"event"},{"anonymous":false,"inputs":[{"indexed":false,"internalType":"address","name":"userAddress","type":"address"}],"name":"LogUserArchived","type":"event"},{"anonymous":false,"inputs":[{"indexed":true,"internalType":"address","name":"previousOwner","type":"address"},{"indexed":true,"internalType":"address","name":"newOwner","type":"address"}],"name":"OwnershipTransferred","type":"event"},{"inputs":[{"internalType":"string","name":"createdAt","type":"string"},{"internalType":"string","name":"text","type":"string"}],"name":"addEntry","outputs":[],"stateMutability":"nonpayable","type":"function"},{"inputs":[],"name":"addUser","outputs":[],"stateMutability":"nonpayable","type":"function"},{"inputs":[],"name":"archiveUser","outputs":[],"stateMutability":"nonpayable","type":"function"},{"inputs":[],"name":"getUserEntries","outputs":[{"internalType":"string[]","name":"entries","type":"string[]"},{"internalType":"string[]","name":"createdAt","type":"string[]"}],"stateMutability":"view","type":"function"},{"inputs":[],"name":"owner","outputs":[{"internalType":"address","name":"","type":"address"}],"stateMutability":"view","type":"function"},{"inputs":[{"internalType":"uint256","name":"index","type":"uint256"}],"name":"removeEntry","outputs":[],"stateMutability":"nonpayable","type":"function"},{"inputs":[],"name":"renounceOwnership","outputs":[],"stateMutability":"nonpayable","type":"function"},{"inputs":[],"name":"toggleActive","outputs":[],"stateMutability":"nonpayable","type":"function"},{"inputs":[{"internalType":"address","name":"newOwner","type":"address"}],"name":"transferOwnership","outputs":[],"stateMutability":"nonpayable","type":"function"},{"inputs":[],"name":"userExists","outputs":[{"internalType":"bool","name":"","type":"bool"}],"stateMutability":"view","type":"function"}],"bytecode":"0x60806040526001600260006101000a81548160ff02191690831515021790555034801561002b57600080fd5b5061004861003d61004d60201b60201c565b61005560201b60201c565b610119565b600033905090565b60008060009054906101000a900473ffffffffffffffffffffffffffffffffffffffff169050816000806101000a81548173ffffffffffffffffffffffffffffffffffffffff021916908373ffffffffffffffffffffffffffffffffffffffff1602179055508173ffffffffffffffffffffffffffffffffffffffff168173ffffffffffffffffffffffffffffffffffffffff167f8be0079c531659141344cd1fd0a4f28419497f9722a3daafe3b4186f6b6457e060405160405180910390a35050565b61210b80620001296000396000f3fe608060405234801561001057600080fd5b506004361061009e5760003560e01c8063715018a611610066578063715018a6146100fc5780638da5cb5b14610106578063eae6d4da14610124578063f2fde38b14610142578063ffdab9091461015e5761009e565b80631910b1de146100a357806329c68dc1146100ad57806343e986f8146100b7578063455c928c146100d65780635ce308a7146100e0575b600080fd5b6100ab61017a565b005b6100b56102fa565b005b6100bf6103a2565b6040516100cd929190611b5f565b60405180910390f35b6100de6108b2565b005b6100fa60048036038101906100f59190611847565b610a2b565b005b610104610c12565b005b61010e610c9a565b60405161011b9190611ad6565b60405180910390f35b61012c610cc3565b6040516101399190611b96565b60405180910390f35b61015c6004803603810190610157919061181e565b610ebb565b005b610178600480360381019061017391906118b3565b610fb3565b005b60011515600160003373ffffffffffffffffffffffffffffffffffffffff1673ffffffffffffffffffffffffffffffffffffffff16815260200190815260200160002060010160009054906101000a900460ff16151514610210576040517f08c379a000000000000000000000000000000000000000000000000000000000815260040161020790611c51565b60405180910390fd5b60011515600260009054906101000a900460ff16151514610266576040517f08c379a000000000000000000000000000000000000000000000000000000000815260040161025d90611bb1565b60405180910390fd5b6000600160003373ffffffffffffffffffffffffffffffffffffffff1673ffffffffffffffffffffffffffffffffffffffff16815260200190815260200160002060010160006101000a81548160ff0219169083151502179055507fa1d316000903cd0221494fad03d4aa856818e4eec0c0225685345fc17cade05d336040516102f09190611ad6565b60405180910390a1565b610302611550565b73ffffffffffffffffffffffffffffffffffffffff16610320610c9a565b73ffffffffffffffffffffffffffffffffffffffff1614610376576040517f08c379a000000000000000000000000000000000000000000000000000000000815260040161036d90611c11565b60405180910390fd5b600260009054906101000a900460ff1615600260006101000a81548160ff021916908315150217905550565b60608060011515600160003373ffffffffffffffffffffffffffffffffffffffff1673ffffffffffffffffffffffffffffffffffffffff16815260200190815260200160002060010160009054906101000a900460ff1615151461043b576040517f08c379a000000000000000000000000000000000000000000000000000000000815260040161043290611c51565b60405180910390fd5b60011515600260009054906101000a900460ff16151514610491576040517f08c379a000000000000000000000000000000000000000000000000000000000815260040161048890611bb1565b60405180910390fd5b6000600160003373ffffffffffffffffffffffffffffffffffffffff1673ffffffffffffffffffffffffffffffffffffffff16815260200190815260200160002060405180604001604052908160008201805480602002602001604051908101604052809291908181526020016000905b82821015610658578382906000526020600020906002020160405180604001604052908160008201805461053590611e41565b80601f016020809104026020016040519081016040528092919081815260200182805461056190611e41565b80156105ae5780601f10610583576101008083540402835291602001916105ae565b820191906000526020600020905b81548152906001019060200180831161059157829003601f168201915b505050505081526020016001820180546105c790611e41565b80601f01602080910402602001604051908101604052809291908181526020018280546105f390611e41565b80156106405780601f1061061557610100808354040283529160200191610640565b820191906000526020600020905b81548152906001019060200180831161062357829003601f168201915b50505050508152505081526020019060010190610502565b5050505081526020016001820160009054906101000a900460ff161515151581525050905080600001515167ffffffffffffffff8111156106c2577f4e487b7100000000000000000000000000000000000000000000000000000000600052604160045260246000fd5b6040519080825280602002602001820160405280156106f557816020015b60608152602001906001900390816106e05790505b50925080600001515167ffffffffffffffff81111561073d577f4e487b7100000000000000000000000000000000000000000000000000000000600052604160045260246000fd5b60405190808252806020026020018201604052801561077057816020015b606081526020019060019003908161075b5790505b50915060005b83518110156108ac57816000015181815181106107bc577f4e487b7100000000000000000000000000000000000000000000000000000000600052603260045260246000fd5b602002602001015160200151848281518110610801577f4e487b7100000000000000000000000000000000000000000000000000000000600052603260045260246000fd5b602002602001018190525081600001518181518110610849577f4e487b7100000000000000000000000000000000000000000000000000000000600052603260045260246000fd5b60200260200101516000015183828151811061088e577f4e487b7100000000000000000000000000000000000000000000000000000000600052603260045260246000fd5b602002602001018190525080806108a490611ea4565b915050610776565b50509091565b60011515600260009054906101000a900460ff16151514610908576040517f08c379a00000000000000000000000000000000000000000000000000000000081526004016108ff90611bb1565b60405180910390fd5b600160003373ffffffffffffffffffffffffffffffffffffffff1673ffffffffffffffffffffffffffffffffffffffff16815260200190815260200160002060010160009054906101000a900460ff1615610998576040517f08c379a000000000000000000000000000000000000000000000000000000000815260040161098f90611bf1565b60405180910390fd5b60018060003373ffffffffffffffffffffffffffffffffffffffff1673ffffffffffffffffffffffffffffffffffffffff16815260200190815260200160002060010160006101000a81548160ff0219169083151502179055507f187047b56eb20e7a0313254e37dc60b8c1a9d25707114d2caaaee420b2b7ec2333604051610a219190611ad6565b60405180910390a1565b60011515600160003373ffffffffffffffffffffffffffffffffffffffff1673ffffffffffffffffffffffffffffffffffffffff16815260200190815260200160002060010160009054906101000a900460ff16151514610ac1576040517f08c379a0000000000000000000000000000000000000000000000000000000008152600401610ab890611c51565b60405180910390fd5b60011515600260009054906101000a900460ff16151514610b17576040517f08c379a0000000000000000000000000000000000000000000000000000000008152600401610b0e90611bb1565b60405180910390fd5b600160003373ffffffffffffffffffffffffffffffffffffffff1673ffffffffffffffffffffffffffffffffffffffff16815260200190815260200160002060000160405180604001604052808481526020018381525090806001815401808255809150506001900390600052602060002090600202016000909190919091506000820151816000019080519060200190610bb392919061161c565b506020820151816001019080519060200190610bd092919061161c565b5050507f5352abb7458867679de401276d0996216efdc39c9542137e3096f33c2e39427c338383604051610c0693929190611af1565b60405180910390a15050565b610c1a611550565b73ffffffffffffffffffffffffffffffffffffffff16610c38610c9a565b73ffffffffffffffffffffffffffffffffffffffff1614610c8e576040517f08c379a0000000000000000000000000000000000000000000000000000000008152600401610c8590611c11565b60405180910390fd5b610c986000611558565b565b60008060009054906101000a900473ffffffffffffffffffffffffffffffffffffffff16905090565b600080600160003373ffffffffffffffffffffffffffffffffffffffff1673ffffffffffffffffffffffffffffffffffffffff16815260200190815260200160002060405180604001604052908160008201805480602002602001604051908101604052809291908181526020016000905b82821015610e8b5783829060005260206000209060020201604051806040016040529081600082018054610d6890611e41565b80601f0160208091040260200160405190810160405280929190818152602001828054610d9490611e41565b8015610de15780601f10610db657610100808354040283529160200191610de1565b820191906000526020600020905b815481529060010190602001808311610dc457829003601f168201915b50505050508152602001600182018054610dfa90611e41565b80601f0160208091040260200160405190810160405280929190818152602001828054610e2690611e41565b8015610e735780601f10610e4857610100808354040283529160200191610e73565b820191906000526020600020905b815481529060010190602001808311610e5657829003601f168201915b50505050508152505081526020019060010190610d35565b5050505081526020016001820160009054906101000a900460ff1615151515815250509050806020015191505090565b610ec3611550565b73ffffffffffffffffffffffffffffffffffffffff16610ee1610c9a565b73ffffffffffffffffffffffffffffffffffffffff1614610f37576040517f08c379a0000000000000000000000000000000000000000000000000000000008152600401610f2e90611c11565b60405180910390fd5b600073ffffffffffffffffffffffffffffffffffffffff168173ffffffffffffffffffffffffffffffffffffffff161415610fa7576040517f08c379a0000000000000000000000000000000000000000000000000000000008152600401610f9e90611bd1565b60405180910390fd5b610fb081611558565b50565b60011515600160003373ffffffffffffffffffffffffffffffffffffffff1673ffffffffffffffffffffffffffffffffffffffff16815260200190815260200160002060010160009054906101000a900460ff16151514611049576040517f08c379a000000000000000000000000000000000000000000000000000000000815260040161104090611c51565b60405180910390fd5b60011515600260009054906101000a900460ff1615151461109f576040517f08c379a000000000000000000000000000000000000000000000000000000000815260040161109690611bb1565b60405180910390fd5b600081101580156110f45750600160003373ffffffffffffffffffffffffffffffffffffffff1673ffffffffffffffffffffffffffffffffffffffff1681526020019081526020016000206000018054905081105b611133576040517f08c379a000000000000000000000000000000000000000000000000000000000815260040161112a90611c31565b60405180910390fd5b60008190505b60018060003373ffffffffffffffffffffffffffffffffffffffff1673ffffffffffffffffffffffffffffffffffffffff1681526020019081526020016000206000018054905061118a9190611d83565b81101561146257600160003373ffffffffffffffffffffffffffffffffffffffff1673ffffffffffffffffffffffffffffffffffffffff1681526020019081526020016000206000016001826111e09190611d2d565b81548110611217577f4e487b7100000000000000000000000000000000000000000000000000000000600052603260045260246000fd5b9060005260206000209060020201600160003373ffffffffffffffffffffffffffffffffffffffff1673ffffffffffffffffffffffffffffffffffffffff168152602001908152602001600020600001828154811061129f577f4e487b7100000000000000000000000000000000000000000000000000000000600052603260045260246000fd5b906000526020600020906002020160008201816000019080546112c190611e41565b6112cc9291906116a2565b5060018201816001019080546112e190611e41565b6112ec9291906116a2565b50905050600160003373ffffffffffffffffffffffffffffffffffffffff1673ffffffffffffffffffffffffffffffffffffffff16815260200190815260200160002060000160018261133f9190611d2d565b81548110611376577f4e487b7100000000000000000000000000000000000000000000000000000000600052603260045260246000fd5b9060005260206000209060020201600160003373ffffffffffffffffffffffffffffffffffffffff1673ffffffffffffffffffffffffffffffffffffffff16815260200190815260200160002060000182815481106113fe577f4e487b7100000000000000000000000000000000000000000000000000000000600052603260045260246000fd5b9060005260206000209060020201600082018160000190805461142090611e41565b61142b9291906116a2565b50600182018160010190805461144090611e41565b61144b9291906116a2565b50905050808061145a90611ea4565b915050611139565b50600160003373ffffffffffffffffffffffffffffffffffffffff1673ffffffffffffffffffffffffffffffffffffffff1681526020019081526020016000206000018054806114db577f4e487b7100000000000000000000000000000000000000000000000000000000600052603160045260246000fd5b600190038181906000526020600020906002020160008082016000611500919061172f565b600182016000611510919061172f565b505090557f54fc2f9c289bef633b8cbe5b81e18411d53035a20d7af06bca83aa1a52cd69553382604051611545929190611b36565b60405180910390a150565b600033905090565b60008060009054906101000a900473ffffffffffffffffffffffffffffffffffffffff169050816000806101000a81548173ffffffffffffffffffffffffffffffffffffffff021916908373ffffffffffffffffffffffffffffffffffffffff1602179055508173ffffffffffffffffffffffffffffffffffffffff168173ffffffffffffffffffffffffffffffffffffffff167f8be0079c531659141344cd1fd0a4f28419497f9722a3daafe3b4186f6b6457e060405160405180910390a35050565b82805461162890611e41565b90600052602060002090601f01602090048101928261164a5760008555611691565b82601f1061166357805160ff1916838001178555611691565b82800160010185558215611691579182015b82811115611690578251825591602001919060010190611675565b5b50905061169e919061176f565b5090565b8280546116ae90611e41565b90600052602060002090601f0160209004810192826116d0576000855561171e565b82601f106116e1578054855561171e565b8280016001018555821561171e57600052602060002091601f016020900482015b8281111561171d578254825591600101919060010190611702565b5b50905061172b919061176f565b5090565b50805461173b90611e41565b6000825580601f1061174d575061176c565b601f01602090049060005260206000209081019061176b919061176f565b5b50565b5b80821115611788576000816000905550600101611770565b5090565b600061179f61179a84611c96565b611c71565b9050828152602081018484840111156117b757600080fd5b6117c2848285611dff565b509392505050565b6000813590506117d9816120a7565b92915050565b600082601f8301126117f057600080fd5b813561180084826020860161178c565b91505092915050565b600081359050611818816120be565b92915050565b60006020828403121561183057600080fd5b600061183e848285016117ca565b91505092915050565b6000806040838503121561185a57600080fd5b600083013567ffffffffffffffff81111561187457600080fd5b611880858286016117df565b925050602083013567ffffffffffffffff81111561189d57600080fd5b6118a9858286016117df565b9150509250929050565b6000602082840312156118c557600080fd5b60006118d384828501611809565b91505092915050565b60006118e88383611983565b905092915050565b6118f981611db7565b82525050565b600061190a82611cd7565b6119148185611cfa565b93508360208202850161192685611cc7565b8060005b85811015611962578484038952815161194385826118dc565b945061194e83611ced565b925060208a0199505060018101905061192a565b50829750879550505050505092915050565b61197d81611dc9565b82525050565b600061198e82611ce2565b6119988185611d0b565b93506119a8818560208601611e0e565b6119b181611f7a565b840191505092915050565b60006119c782611ce2565b6119d18185611d1c565b93506119e1818560208601611e0e565b6119ea81611f7a565b840191505092915050565b6000611a02602083611d1c565b9150611a0d82611f8b565b602082019050919050565b6000611a25602683611d1c565b9150611a3082611fb4565b604082019050919050565b6000611a48601383611d1c565b9150611a5382612003565b602082019050919050565b6000611a6b602083611d1c565b9150611a768261202c565b602082019050919050565b6000611a8e601483611d1c565b9150611a9982612055565b602082019050919050565b6000611ab1601383611d1c565b9150611abc8261207e565b602082019050919050565b611ad081611df5565b82525050565b6000602082019050611aeb60008301846118f0565b92915050565b6000606082019050611b0660008301866118f0565b8181036020830152611b1881856119bc565b90508181036040830152611b2c81846119bc565b9050949350505050565b6000604082019050611b4b60008301856118f0565b611b586020830184611ac7565b9392505050565b60006040820190508181036000830152611b7981856118ff565b90508181036020830152611b8d81846118ff565b90509392505050565b6000602082019050611bab6000830184611974565b92915050565b60006020820190508181036000830152611bca816119f5565b9050919050565b60006020820190508181036000830152611bea81611a18565b9050919050565b60006020820190508181036000830152611c0a81611a3b565b9050919050565b60006020820190508181036000830152611c2a81611a5e565b9050919050565b60006020820190508181036000830152611c4a81611a81565b9050919050565b60006020820190508181036000830152611c6a81611aa4565b9050919050565b6000611c7b611c8c565b9050611c878282611e73565b919050565b6000604051905090565b600067ffffffffffffffff821115611cb157611cb0611f4b565b5b611cba82611f7a565b9050602081019050919050565b6000819050602082019050919050565b600081519050919050565b600081519050919050565b6000602082019050919050565b600082825260208201905092915050565b600082825260208201905092915050565b600082825260208201905092915050565b6000611d3882611df5565b9150611d4383611df5565b9250827fffffffffffffffffffffffffffffffffffffffffffffffffffffffffffffffff03821115611d7857611d77611eed565b5b828201905092915050565b6000611d8e82611df5565b9150611d9983611df5565b925082821015611dac57611dab611eed565b5b828203905092915050565b6000611dc282611dd5565b9050919050565b60008115159050919050565b600073ffffffffffffffffffffffffffffffffffffffff82169050919050565b6000819050919050565b82818337600083830152505050565b60005b83811015611e2c578082015181840152602081019050611e11565b83811115611e3b576000848401525b50505050565b60006002820490506001821680611e5957607f821691505b60208210811415611e6d57611e6c611f1c565b5b50919050565b611e7c82611f7a565b810181811067ffffffffffffffff82111715611e9b57611e9a611f4b565b5b80604052505050565b6000611eaf82611df5565b91507fffffffffffffffffffffffffffffffffffffffffffffffffffffffffffffffff821415611ee257611ee1611eed565b5b600182019050919050565b7f4e487b7100000000000000000000000000000000000000000000000000000000600052601160045260246000fd5b7f4e487b7100000000000000000000000000000000000000000000000000000000600052602260045260246000fd5b7f4e487b7100000000000000000000000000000000000000000000000000000000600052604160045260246000fd5b6000601f19601f8301169050919050565b7f436f6e7472616374206973206e6f742063757272656e746c7920616374697665600082015250565b7f4f776e61626c653a206e6577206f776e657220697320746865207a65726f206160008201527f6464726573730000000000000000000000000000000000000000000000000000602082015250565b7f5573657220616c72656164792065786973747300000000000000000000000000600082015250565b7f4f776e61626c653a2063616c6c6572206973206e6f7420746865206f776e6572600082015250565b7f456e74727920646f6573206e6f74206578697374000000000000000000000000600082015250565b7f55736572206d7573742062652061637469766500000000000000000000000000600082015250565b6120b081611db7565b81146120bb57600080fd5b50565b6120c781611df5565b81146120d257600080fd5b5056fea264697066735822122079bcb3af190e986c8949d00b50dc0a0d1c14f895888cd40c5ecaf785a4b33a4864736f6c63430008040033","linkReferences":{},"deployedLinkReferences":{}}