{
  "contractName": "Lves",
  "abi": [
    {
      "anonymous": false,
      "inputs": [
        {
          "indexed": false,
          "internalType": "address",
          "name": "userAddress",
          "type": "address"
        },
        {
          "indexed": false,
          "internalType": "string",
          "name": "text",
          "type": "string"
        }
      ],
      "name": "LogEntryAdded",
      "type": "event"
    },
    {
      "anonymous": false,
      "inputs": [
        {
          "indexed": false,
          "internalType": "address",
          "name": "userAddress",
          "type": "address"
        }
      ],
      "name": "LogUserAdded",
      "type": "event"
    },
    {
      "anonymous": false,
      "inputs": [
        {
          "indexed": false,
          "internalType": "address",
          "name": "userAddress",
          "type": "address"
        }
      ],
      "name": "LogUserRemoved",
      "type": "event"
    },
    {
      "inputs": [
        {
          "internalType": "address",
          "name": "walletAddress",
          "type": "address"
        }
      ],
      "name": "addUser",
      "outputs": [],
      "stateMutability": "nonpayable",
      "type": "function"
    },
    {
      "inputs": [
        {
          "internalType": "address",
          "name": "walletAddress",
          "type": "address"
        }
      ],
      "name": "removeUser",
      "outputs": [],
      "stateMutability": "nonpayable",
      "type": "function"
    },
    {
      "inputs": [
        {
          "internalType": "address",
          "name": "walletAddress",
          "type": "address"
        },
        {
          "internalType": "string",
          "name": "text",
          "type": "string"
        }
      ],
      "name": "addEntry",
      "outputs": [],
      "stateMutability": "nonpayable",
      "type": "function"
    }
  ],
  "bytecode": "0x6080604052336000806101000a81548173ffffffffffffffffffffffffffffffffffffffff021916908373ffffffffffffffffffffffffffffffffffffffff16021790555034801561005057600080fd5b506105dc806100606000396000f3fe608060405234801561001057600080fd5b50600436106100415760003560e01c8063402c3dc114610046578063421b2d8b14610062578063985751881461007e575b600080fd5b610060600480360381019061005b919061040e565b61009a565b005b61007c6004803603810190610077919061046a565b610134565b005b6100986004803603810190610093919061046a565b6101c5565b005b60011515600160003373ffffffffffffffffffffffffffffffffffffffff1673ffffffffffffffffffffffffffffffffffffffff16815260200190815260200160002060010160009054906101000a900460ff16151514610130576040517f08c379a0000000000000000000000000000000000000000000000000000000008152600401610127906104f4565b60405180910390fd5b5050565b60008054906101000a900473ffffffffffffffffffffffffffffffffffffffff1673ffffffffffffffffffffffffffffffffffffffff163373ffffffffffffffffffffffffffffffffffffffff16146101c2576040517f08c379a00000000000000000000000000000000000000000000000000000000081526004016101b990610586565b60405180910390fd5b50565b60008054906101000a900473ffffffffffffffffffffffffffffffffffffffff1673ffffffffffffffffffffffffffffffffffffffff163373ffffffffffffffffffffffffffffffffffffffff1614610253576040517f08c379a000000000000000000000000000000000000000000000000000000000815260040161024a90610586565b60405180910390fd5b50565b6000604051905090565b600080fd5b600080fd5b600073ffffffffffffffffffffffffffffffffffffffff82169050919050565b60006102958261026a565b9050919050565b6102a58161028a565b81146102b057600080fd5b50565b6000813590506102c28161029c565b92915050565b600080fd5b600080fd5b6000601f19601f8301169050919050565b7f4e487b7100000000000000000000000000000000000000000000000000000000600052604160045260246000fd5b61031b826102d2565b810181811067ffffffffffffffff8211171561033a576103396102e3565b5b80604052505050565b600061034d610256565b90506103598282610312565b919050565b600067ffffffffffffffff821115610379576103786102e3565b5b610382826102d2565b9050602081019050919050565b82818337600083830152505050565b60006103b16103ac8461035e565b610343565b9050828152602081018484840111156103cd576103cc6102cd565b5b6103d884828561038f565b509392505050565b600082601f8301126103f5576103f46102c8565b5b813561040584826020860161039e565b91505092915050565b6000806040838503121561042557610424610260565b5b6000610433858286016102b3565b925050602083013567ffffffffffffffff81111561045457610453610265565b5b610460858286016103e0565b9150509250929050565b6000602082840312156104805761047f610260565b5b600061048e848285016102b3565b91505092915050565b600082825260208201905092915050565b7f55736572206d7573742062652061637469766500000000000000000000000000600082015250565b60006104de601383610497565b91506104e9826104a8565b602082019050919050565b6000602082019050818103600083015261050d816104d1565b9050919050565b7f4f6e6c792074686520636f6e7472616374206f776e65722063616e207065726660008201527f6f726d207468697320616374696f6e0000000000000000000000000000000000602082015250565b6000610570602f83610497565b915061057b82610514565b604082019050919050565b6000602082019050818103600083015261059f81610563565b905091905056fea26469706673582212201feed03f728dd6b419f65821ad3d1e0aef4d039c9442dd2541087e3e1112b07d64736f6c63430008090033",
  "immutableReferences": {},
  "source": "// SPDX-License-Identifier: MIT\npragma solidity 0.8.9;\n\ncontract Lves {\n  struct Entry {\n    string created;\n    string text;\n    bool isActive;\n  }\n\n  struct User {\n    Entry[] entries;\n    bool isActive;\n  }\n\n  address owner = msg.sender;\n\n  mapping(address => User) users;\n\n  // TODO: use OpenZeppeling Ownerable.sol\n  modifier isOwner() {\n    require(msg.sender == owner, \"Only the contract owner can perform this action\");\n    _;\n  }\n\n  modifier isActiveUser() {\n    require(users[msg.sender].isActive == true, \"User must be active\");\n    _;\n  }\n\n  event LogUserAdded(address userAddress);\n  event LogUserRemoved(address userAddress);\n  event LogEntryAdded(address userAddress, string text);\n\n  function addUser(address walletAddress) public isOwner {}\n\n  function removeUser(address walletAddress) public isOwner {}\n\n  function addEntry(address walletAddress, string memory text) public isActiveUser {}\n}\n",
  "sourcePath": "/Users/jarretmoses/Learn/Blockchain/ConsensysBootcamp/blockchain-developer-bootcamp-final-project/contracts/Lves.sol",
  "compiler": {
    "name": "solc",
    "version": "0.8.9+commit.e5eed63a.Emscripten.clang"
  },
  "schemaVersion": "3.4.3",
  "updatedAt": "2021-10-09T13:03:41.926Z",
  "devdoc": {
    "kind": "dev",
    "methods": {},
    "version": 1
  },
  "userdoc": {
    "kind": "user",
    "methods": {},
    "version": 1
  }
}